:100000000C942A000C9447000C9447000C94470071
:100010000C9447000C9447000C9447000C94470044
:100020000C9447000C9447000C9447000C94080172
:100030000C9447000C9447000C9447000C94470024
:100040000C9447000C9447000C9447000C94470014
:100050000C94470011241FBECFE5D4E0DEBFCDBF16
:1000600010E0A0E6B0E0E0EDF9E002C005900D92EE
:10007000A836B107D9F710E0A8E6B0E001C01D929C
:10008000A037B107E1F70E948B000C94E6040C94B2
:10009000000087E886B980E487B90895EAE3F0E0D4
:1000A000908121E030E0082E02C0220F331F0A9415
:1000B000E2F7209529232083E7E2F0E090818F701A
:1000C000892B8083E6E2F0E08081806480838081F8
:1000D00084FFFDCF85E38A95F1F784B145B1342FD4
:1000E00020E090E028233923822F932F0895EAE31C
:1000F000F0E080818160808360E875E280E090E0DC
:100100000E94A3000895EAE3F0E08081826080838A
:100110000E947700FFCF0E9483000895E7E3F0E09C
:1001200080818860808385E783BF19BE8FEF8CBF95
:10013000089521E030E0281B3109922F8827821B87
:10014000930B8CBF08959B01AC01E1E3F0E080814B
:1001500082608083220F331F441F551F220F331FDD
:10016000441F551F220F331F441F551F220F331FDB
:10017000441F551F60E074E284EF90E00E94EC01A0
:100180002150304030BD29B9EAE2F0E0808188603A
:1001900080838081806180838081806C808378947B
:1001A0000895982FEBE2F0E0808185FFFDCF9CB9A8
:1001B0000895EBE2F0E080818823ECF78CB108959C
:1001C0000F931F93CF93DF930E94D900082F0E94B3
:1001D000D9000E94D900182F0E94D9008B3381F4D6
:1001E000C12FD0E0013319F0023351F404C08881EB
:1001F0000E94D10005C00E94D9000E94D9008883C6
:10020000DF91CF911F910F9108958BB18170089567
:100210001F920F920FB60F9211242F933F934F937B
:100220005F936F937F938F939F93AF93BF93EF935E
:10023000FF93F8944CB1403441F410926400109252
:10024000630081E0809368006FC02091630030916B
:10025000640080916500909166002817390780F44A
:10026000403271F08091630090916400FC01E55987
:10027000FF4F40830196909364008093630054C0C5
:1002800080916B00813359F08233B1F08823D1F42F
:1002900010926400109263001092680013C0A09145
:1002A0006E00B0916F00E0916C00F0E080818C9363
:1002B0008C910E94D10006C0ECE6F0E0A191B0E084
:1002C00080818C93EBE3F0E080818160808320ED7E
:1002D00037E040E951E0CA010197F1F72150304081
:1002E000D1F7EBE3F0E080818E7F808320ED37E073
:1002F00040E951E0CA010197F1F721503040D1F7B0
:10030000EBE3F0E080818160808320ED37E040E91D
:1003100051E0CA010197F1F721503040D1F7EBE3EA
:10032000F0E080818E7F80837894FF91EF91BF9180
:10033000AF919F918F917F916F915F914F913F917D
:100340002F910F900FBE0F901F9018952091630072
:1003500030916400809165009091660040E028171C
:10036000390708F041E0842F08950F931F93CF932E
:10037000DF930091690010916A0000D000D000D096
:10038000EDB7FEB731961183008320E630E033836A
:100390002283848315820E940E02C0E0D0E08DB7D4
:1003A0009EB706960FB6F8949EBF0FBE8DBFF8019C
:1003B000EC0FFD1F80810E94D1002196C330D10532
:1003C000B4F3F801EC0FFD1F8081882381F7DF91E2
:1003D000CF911F910F910895A1E21A2EAA1BBB1B6A
:1003E000FD010DC0AA1FBB1FEE1FFF1FA217B30701
:1003F000E407F50720F0A21BB30BE40BF50B661F17
:10040000771F881F991F1A9469F7609570958095DA
:1004100090959B01AC01BD01CF010895AEE0B0E025
:10042000E4E1F2E00C94BD040D891E8986E08C8322
:100430001A8309838FEF9FE79E838D839E01275E3A
:100440003F4FCE0101966F89788DA9010E9432023B
:100450002F813885020F131FF80110822E96E4E0D9
:100460000C94D904ABE0B0E0E8E3F2E00C94AF0404
:100470003C012B015A01FC0117821682838181FD08
:1004800003C06FEF7FEFC6C19AE0892E1E0108946A
:10049000211C311CF3012381F20123FD859123FFEF
:1004A00081912F01882309F4B2C1853239F423FDEB
:1004B000859123FF81912F01853229F490E0B301CA
:1004C0000E942504E7CF982FFF24EE249924FFE112
:1004D000FF15D0F09B3269F09C3228F4903259F02D
:1004E000933291F40EC09D3249F0903369F441E0AB
:1004F00024C052E0F52A84E0F82A28C098E0F92ABE
:1005000025C0E0E1FE2A22C0F7FC29C0892F8053D4
:100510008A3070F4F6FE05C0989C902C1124980E39
:1005200015C0E89CE02C1124E80EF0E2FF2A0EC072
:100530009E3229F4F6FC6BC140E4F42A07C09C36D5
:1005400019F450E8F52A02C0983649F4F20123FD67
:10055000959123FF91912F01992309F0B8CF892F0D
:100560008554833018F08052833038F444E050E0F2
:10057000A40EB51E5FE359830FC0933631F0933755
:1005800079F0933509F056C020C0F5018081898348
:1005900042E050E0A40EB51E610101E010E012C07F
:1005A000F501C080D180F6FC03C06FEF7FEF02C081
:1005B000692D70E042E050E0A40EB51EC6010E9415
:1005C0001A048C015FE7F52214C0F501C080D180C8
:1005D000F6FC03C06FEF7FEF02C0692D70E042E0D0
:1005E00050E0A40EB51EC6010E940F048C0150E815
:1005F000F52AF3FE07C01AC080E290E0B3010E9422
:100600002504EA948E2D90E008171907A8F30EC070
:10061000F601F7FC8591F7FE81916F0190E0B3013F
:100620000E942504E110EA940150104001151105C3
:1006300079F7EAC0943611F0993669F5F7FE08C0EB
:10064000F501208131814281538184E090E00AC02C
:10065000F501808191819C01442737FD4095542FFD
:1006600082E090E0A80EB91E9FE6F92257FF09C06C
:1006700050954095309521953F4F4F4F5F4FE0E8A3
:10068000FE2ACA01B901A1012AE030E00E9451040A
:10069000D82ED21840C0953729F41F2D1F7E2AE08E
:1006A00030E01DC01F2D197F9F3661F0903720F478
:1006B000983509F0ACC00FC0903739F0983709F081
:1006C000A6C004C028E030E00AC0106114FD146028
:1006D00020E130E004C014FD166020E132E017FF95
:1006E00008C0F501608171818281938144E050E00E
:1006F00008C0F50180819181BC0180E090E042E07A
:1007000050E0A40EB51EA1010E945104D82ED218AB
:100710008FE7F82EF122F6FE0BC05EEFF522D9141A
:1007200038F4F4FE07C0F2FC05C08FEEF82202C0D8
:100730001D2D01C0192DF4FE0DC0FE01ED0DF11DA2
:100740008081803319F499EEF92208C01F5FF2FE10
:1007500005C003C08F2D867809F01F5F0F2DF3FCB5
:1007600014C0F0FE0FC01E1510F09D2C0BC09D2C68
:100770009E0C911A1E2D06C080E290E0B3010E94EB
:1007800025041F5F1E15C0F304C01E1510F4E11AE6
:1007900001C0EE2404FF0FC080E390E0B3010E948B
:1007A000250402FF1DC001FD03C088E790E00EC0D4
:1007B00088E590E00BC0802F867891F001FF02C0A1
:1007C0008BE201C080E2F7FC8DE290E0B3010E9471
:1007D000250406C080E390E0B3010E9425049A94AA
:1007E000D914C0F3DA94F101ED0DF11D808190E090
:1007F000B3010E942504DD20A9F706C080E290E045
:10080000B3010E942504EA94EE20C1F743CEF30120
:1008100066817781CB012B96E2E10C94CB04FC013D
:100820000590615070400110D8F7809590958E0F1B
:100830009F1F0895FC016150704001900110D8F78E
:10084000809590958E0F9F1F08950F931F93CF93C0
:10085000DF938C01EB018B8181FF1BC082FF0DC0F8
:100860002E813F818C819D812817390764F4E881AE
:10087000F9810193F983E88306C0E885F985802F23
:100880000995892B31F48E819F8101969F838E83F8
:1008900002C00FEF1FEFC801DF91CF911F910F91A1
:1008A0000895FA01AA27283051F1203181F1E89406
:1008B0006F936E7F6E5F7F4F8F4F9F4FAF4FB1E053
:1008C0003ED0B4E03CD0670F781F891F9A1FA11D4E
:1008D000680F791F8A1F911DA11D6A0F711D811D4F
:1008E000911DA11D20D009F468943F912AE0269F14
:1008F00011243019305D3193DEF6CF010895462F73
:100900004770405D4193B3E00FD0C9F7F6CF462F53
:100910004F70405D4A3318F0495D31FD40524193BC
:1009200002D0A9F7EACFB4E0A69597958795779579
:100930006795BA95C9F700976105710508959B0100
:10094000AC010A2E06945795479537952795BA9589
:10095000C9F7620F731F841F951FA01D08952F9262
:100960003F924F925F926F927F928F929F92AF923F
:10097000BF92CF92DF92EF92FF920F931F93CF938C
:10098000DF93CDB7DEB7CA1BDB0B0FB6F894DEBF23
:100990000FBECDBF09942A88398848885F846E8449
:1009A0007D848C849B84AA84B984C884DF80EE8093
:1009B000FD800C811B81AA81B981CE0FD11D0FB69C
:1009C000F894DEBF0FBECDBFED010895F894FFCFC0
:0809D000256400030003000090
:00000001FF
