S016000070635F6272696467655F756172742E7372656354
S11300000C942A000C9447000C9447000C9447006D
S11300100C9447000C9447000C9447000C94470040
S11300200C9447000C9447000C9447000C94AE00C9
S11300300C9447000C9447000C9447000C94470020
S11300400C9447000C9447000C9447000C94470010
S11300500C94470011241FBECFE5D4E0DEBFCDBF12
S113006010E0A0E6B0E0ECE9F3E002C005900D92E8
S1130070A436B107D9F720E0A4E6B0E001C01D9290
S1130080A836B207E1F70E9473000C94CC010C94DB
S1130090000087E886B980E487B90895823019F0B2
S11300A0833079F008958FEF8ABB60E875E280E0D1
S11300B090E00E947E000E9449000E94750078949E
S11300C008958AB387608ABB60E875E280E090E0B7
S11300D00E947E00789408958BB384608BBB83E088
S11300E00E944E00FFCF0E946C0087B3886087BBDC
S11300F085E783BF19BE8FEF8CBF089521B32260BB
S113010021BBDC01CB01880F991FAA1FBB1F880FDD
S1130110991FAA1FBB1F9C01AD01220F331F441F4F
S1130120551F220F331F441F551F60E074E284EFF4
S113013090E00E94AA012150310930BD29B98AB149
S113014088608AB98AB180618AB98AB1806C8AB9B7
S1130150789408955D9BFECF8CB908951F920F92F9
S11301600FB60F9211242F933F934F935F936F9386
S11301707F938F939F93AF93BF93EF93FF93F894E1
S11301808CB1803429F41092610010926000D0C0C8
S11301908C3329F41092610010926000C9C0409120
S11301A06000509161002091620030916300421719
S11301B0530790F4803281F0209160003091610007
S11301C0A9014F5F5F4F5093610040936000F901B4
S11301D0EC59FF4F8083ACC08B3309F0A9C0209148
S11301E06000309161008091620090916300281753
S11301F0390709F09DC08BB382608BBB2FEF83EC72
S113020099E0215080409040E1F700C000008BB39A
S11302108D7F8BBB2FEF83EC99E021508040904081
S1130220E1F700C0000080916400813049F018F0CB
S1130230823019F153C0109261001092600051C0D5
S11302408BB384608BBB2FEF83EC99E0215080400B
S11302509040E1F700C000008BB38B7F8BBB2FEF86
S113026083EC99E0215080409040E1F700C0000009
S1130270809100000E94AA0034C08BB384608BBBC1
S11302802FEF83EC99E0215080409040E1F700C0CB
S113029000008BB38B7F8BBB2FEF83EC99E0215055
S11302A080409040E1F700C000008BB382608BBBBC
S11302B02FEF83EC99E0215080409040E1F700C09B
S11302C000008BB38D7F8BBB2FEF83EC99E0215023
S11302D080409040E1F700C0000003C085E40E9424
S11302E0AA008BB381608BBB2FEF83EC99E0215084
S11302F080409040E1F700C000008BB38E7F8BBB41
S11303002FEF83EC99E0215080409040E1F700C04A
S113031000008BB381608BBB2FEF83EC99E02150FD
S113032080409040E1F700C000008BB38E7F8BBB10
S11303307894FF91EF91BF91AF919F918F917F91AD
S11303406F915F914F913F912F910F900FBE0F903E
S11303501F901895A1E21A2EAA1BBB1BFD010DC00C
S1130360AA1FBB1FEE1FFF1FA217B307E407F50761
S113037020F0A21BB30BE40BF50B661F771F881F3D
S1130380991F1A9469F760957095809590959B01D3
S10F0390AC01BD01CF010895F894FFCF2B
S107039C0400040051
S9030000FC
